:020000040800F2
:1000000070120020DD010008A71400088513000805
:10001000A51400086D020008351900080000000052
:100020000000000000000000000000004501000882
:100030006F0200080000000089010008D1140008C8
:10004000F7010008C9140008F7010008F7010008CB
:1000500073020008CD140008F7010008F70100083A
:10006000F7010008F7010008F7010008F701000890
:10007000F7010008F7010008F7010008F701000880
:10008000F7010008F7010008F7010008F701000870
:10009000F7010008F7010008F7010008F701000860
:1000A000F7010008F7010008F7010008F701000850
:1000B000F7010008F7010008F7010008F701000840
:1000C000F7010008F7010008F7010008F701000830
:1000D000F701000829190008F7010008F7010008D6
:1000E000F7010008F7010008F7010008F701000810
:1000F00095150008F7010008F7010008F70100084E
:10010000F7010008F7010008F7010008F7010008EF
:10011000F7010008F7010008F7010008F7010008DF
:10012000F7010008F7010008F7010008F7010008CF
:10013000DFF80CD000F088F800480047A11900084B
:1001400070120020224B19680868B0E8F00F80F3A5
:100150000988BFF36F8F4FF0000080F311884EF0D5
:100160000D0E70470000000006480068006880F32C
:10017000088862B661B6BFF34F8FBFF36F8F00DFA1
:1001800000BF00BF08ED00E0EFF30980BFF36F8F01
:100190000F4B1A6820E9F00F106008B54FF05000BF
:1001A00080F31188BFF34F8FBFF36F8F01F084FF8F
:1001B0004FF0000080F31188BDE808401968086816
:1001C000B0E8F00F80F30988BFF36F8F704700BF6E
:1001D00018000020EFF305807047000006488047B4
:1001E00006480047FEE7FEE7FEE7FEE7FEE7FEE71C
:1001F000FEE7FEE7FEE7FEE74D15000831010008C7
:1002000040EA01039B0703D009E008C9121F08C098
:10021000042AFAD203E011F8013B00F8013B521E18
:10022000F9D27047D2B201E000F8012B491EFBD28F
:1002300070470022F6E710B513460A4604461946F1
:10024000FFF7F0FF204610BD064C074D06E0E068C2
:1002500040F0010394E8070098471034AC42F6D30D
:10026000FFF76AFFC4230008E4230008FEE7704795
:10027000704700F009B90000064A0021D161064923
:100280000A6942F002020A614861086940F04000D0
:10029000086170476001002000200240044B0022EA
:1002A000DA61044A136943F0010313610180704766
:1002B000600100200020024014480022C168CB06E3
:1002C000134904D5CA6942F00202CA611022C36808
:1002D0005B0705D5CB6943F00103CB6142F0040213
:1002E000C369DB0707D0CB6943F00403CB61C16965
:1002F00021F00101C161A2F58071013901D0C26014
:100300007047C16921F00101C161704700200240BE
:1003100060010020064D4FF4FA74204601F074FB92
:1003200004A001F009FB2021284600F027FAF4E799
:10033000000C014068656C6C6F210000044C322099
:1003400001F062FB2021204600F018FAF7E70000D8
:10035000001801402DE9F05F90F8211000240229D7
:1003600003D004218163012485E001680A6822F03A
:100370000E020A6001680A6822F001020A603F4E1C
:100380003E4FB215DFF8F4C0DFF8F090DFF8ECA0D4
:10039000DFF8E8B0DFF8E4E00168783F1301150208
:1003A000ACF1640CA9F15009AAF13C0AABF1280B9D
:1003B000AEF1140E4FF48018B14227D9B9420ED0D5
:1003C000614512D049451DD0514518D0594518D026
:1003D000714501D1424615E0294EB14201D10122B9
:1003E00010E0274E1436B14201D110220AE0244E0B
:1003F0002836B14206D0224A3C32914201D11A46F7
:1004000000E02A461E49091F0A602BE0B94213D0BA
:10041000614517D0494522D051451DD059451DD0C1
:10042000714501D142461AE0B14202D14FF08072CB
:1004300015E0134EB14201D1012210E0104E1436E6
:10044000B14201D110220AE00D4E2836B14206D049
:100450000B4A3C32914201D11A4600E02A46074934
:1004600080394A60012180F82110002180F8201095
:10047000416B01B188472046BDE8F09F80000240F3
:1004800008040240704700002DE9F0413E4DE86845
:100490003E4CC0064FF0FF374FF0000602D4E8682C
:1004A000400708D5D4F80880A760FFF705FF40464D
:1004B00000F06EF82670E868800653D52020E860CA
:1004C0002078F8B1207801281DD02078022833D078
:1004D0006068401E60606068B0B3A068801CA06067
:1004E000A06821696269090C41EA0241120C21618C
:1004F0006261296921F0010129612169626989B27A
:10050000FFF7CCFE2EE06068401E6060606868B156
:10051000A068FFF7B7FFA06800F50060A060296938
:1005200021F002012961FFF7A7FE1BE03846A76012
:100530002670FFF7A7FF15E0286920F00400286166
:100540000020FFF79FFF0CE0FFE72078032817D07B
:1005500020780428A06815D0B0F10600FFF792FFBC
:10056000A76026702078002808D1286920F00700AD
:100570002861286920F4A05028612676BDE8F08122
:10058000A068EBE7801EE9E7002002406001002040
:10059000704700002DE9F84FDFF8B8A100220AF1FA
:1005A000040B144601274FF00F090BF1040E00BF96
:1005B0000B6807FA04F52B40AB4274D1DFF898C101
:1005C0004E68A6EB0C0866452BD00DDC032E34D00C
:1005D00005DC36B3012E19D0022E2FD11BE0112ECF
:1005E00016D0122E2AD119E0B8F5881F19D006DCD2
:1005F000B8F5803F15D0B8F5801F1FD111E0B8F5D0
:10060000001F0ED0B8F5041F18D10AE0CA6815E023
:10061000CA68121D12E0CA6808320FE0CA680C32BC
:100620000CE08A682AB1012A4FF0080203D0456124
:1006300004E0042202E0056100E00022FF2B01D863
:10064000064601E000F104064FEA840501D9A5F150
:100650002005D6F800C009FA05F82CEA080C02FAC1
:1006600005F54CEA050CC6F800C04D68ED006AD5EA
:100670003A4DAE6946F00106AE61AD6924F003065D
:1006800005F001050095364D06EB050CDCF8085029
:10069000A6074FEA167809FA08F6B543314EB0427C
:1006A00002D100261AE04EE02F4EB04201D10126C1
:1006B00014E02E4EB04201D102260FE02C4EB04283
:1006C00001D103260AE02B4EB04201D1042605E0F9
:1006D000294EB04201D1052600E0062606FA08F6AA
:1006E0002E43CCF808604D68DAF80060ED035546FB
:1006F00001D51E4300E09E432E604D68AD0305D535
:10070000DBF800601E43CBF8006004E0DBF800502B
:100710009D43CBF800504D68DEF80060ED02754651
:1007200001D51E4300E09E432E604D68AD0205D505
:10073000084D0C352E681E432E6004E0054E0C3625
:1007400035689D433560641C102CFFF431AFBDE863
:10075000F88F00000004014000001110001002405A
:100760000000014000080140000C01400010014061
:100770000014014000180140001C0140C2684A40BA
:10078000C26070470AB1016170470904FBE70000CD
:100790000148806870470000080000200248816816
:1007A000027811448160704708000020074810B5A6
:1007B000016841F010010160032000F093F800206F
:1007C00000F006F800F03EF8002010BD00200240C6
:1007D00000B5014687B000222C2000F063F82C20E1
:1007E00000F054F81348816941F400518161806937
:1007F00005A900F400500690684600F04BF900F09F
:1008000079F90D490D4AB0FBF1F10D48491E02601E
:10081000416040F2E7320021C0E90321816000F02D
:1008200033FB10B1012007B000BD054800F048FBC4
:10083000F9E700000010024040420F000034014080
:10084000200100200F4808B5816941F00101816154
:10085000816901F001010091C16941F08051C161DC
:10086000C069002200F0805000900F21901E00F01F
:1008700019F80548416821F0E06141F000714160DC
:1008800008BD0000001002400000014000F01F02FF
:10089000012191404009800000F1E020C0F80011E2
:1008A00070470000F0B40E4B1B680C46C3F30223E4
:1008B000C3F10705042D00D90425191D072901D20C
:1008C000002300E0DB1E012606FA05F1491E214047
:1008D00099409E40761E16403143F0BC00F0E4BDC6
:1008E0000CED00E0064900F0070208684FF6FF0330
:1008F000184040EA0220034A104308607047000095
:100900000CED00E00000FA057047000010B5054C42
:100910002068C00304D5FFF7F7FF4FF48030206054
:1009200010BD0000140401402DE9F047DFF85481A8
:1009300005460E46D8F8000000F00700B0420CD281
:10094000D8F8001021F007013143C8F80010D8F89A
:10095000000000F00700B0426FD128684A4C8107C0
:1009600012D5400703D5606840F4E06060602878E5
:10097000000703D5606840F4605060606068A96853
:1009800020F0F000084360602878C00744D0686811
:10099000012816D02168022816D0890700294CDAD0
:1009A000616821F0030101436160FFF7F1FE6968AE
:1009B000074641F2883001290ED00229814618D01D
:1009C00026E021688903E9E78901E7E7FFF7E0FE10
:1009D000C11B494501D918E081466068C0F3810018
:1009E0000128F3D118E000BFFFF7D2FEC11B494533
:1009F0000BD86068C0F381000228F5D10CE000BF7D
:100A0000FFF7C6FEC11B494502D90320BDE8F087A8
:100A1000606810F00C0FF3D1D8F80010404601F0D8
:100A20000701B1420BD9016821F007013143016090
:100A3000006800F00700B04201D00120E6E7287806
:100A4000400705D56068E96820F4E060084360600D
:100A50002878000706D56068296920F4605040EACC
:100A6000C100606000F056F86168084AC1F30311E4
:100A7000515CC840064908600020FFF7A9FE00202D
:100A8000C4E7000000200240001002409423000848
:100A9000140000200F2202600C4A536803F0030385
:100AA0004360536803F0F0038360536803F4E0632A
:100AB000C36052684FF4E06303EAD2020261044863
:100AC000006800F007000860704700000010024056
:100AD000002002400448054900684968044AC1F3FF
:100AE0000221515CC84070471400002000100240F1
:100AF000A42300080448054900684968044AC1F372
:100B0000C221515CC8407047140000200010024010
:100B1000A423000812A185B00FC98DE80F0014A00E
:100B2000144A006804905168134801F00C03042B28
:100B300010D0082B0ED1C1F38343C9031DF8030065
:100B40000AD5516804AAC1F34041515C0A4A504396
:100B5000B0FBF1F005B0704708494843FAE70000E0
:100B600002030405060708090A0B0C0D0E0F1010EE
:100B7000010200000010024000127A0000093D004E
:100B80002DE9F84F04460078B94DC00748D0686891
:100B9000C0F38100012807D06868C0F381000228F3
:100BA00009D16868C00306D52868800338D5606815
:100BB00000286FD034E06068B0F5803F0BD010B1F2
:100BC000B0F5A02F11D0286820F480302860286864
:100BD00020F4802002E0286840F4803028606068BB
:100BE00088B1FFF7D5FD064609E0286840F480206B
:100BF0002860F0E7FFF7CCFD801B642875D82868D3
:100C00008003F7D50CE0FFF7C3FD064605E000BF03
:100C1000FFF7BEFD801B6428F0D828688003F7D456
:100C20002078944E80074FF001094FF000083BD523
:100C3000686810F00C0F07D06868C0F381000228C4
:100C400009D16868C00306D42868800714D52069D4
:100C500001281FD110E02069B0B1C6F80090FFF75D
:100C600097FD074605E000BFFFF792FDC01B022875
:100C7000C4D828688007F7D52868616920F0F80093
:100C800040EAC10028600FE0C6F80080FFF780FD51
:100C9000074606E0E9E000BFFFF77AFDC01B022827
:100CA00023D828688007F7D4207800072CD572480D
:100CB000A169D9B1C0F80090FFF76AFD074604E0CA
:100CC000FFF766FDC01B02280FD8686A8007F7D5BA
:100CD0006A484FF4FA510068B0FBF1F0009000BF91
:100CE0000098411E0091FAD20EE080E0C0F800802A
:100CF000FFF74EFD074604E0FFF74AFDC01B022840
:100D000075D8686A8007F7D42078400760D5E8690D
:100D10000027C00008D4E86940F08050E861E86925
:100D2000012700F08050009055480168C90513D490
:100D30000168834641F480710160FFF729FD824616
:100D400006E000BFFFF724FDA0EB0A0064284ED8A0
:100D5000DBF80000C005F5D5E06801280AD008B12D
:100D6000052813D0286A20F001002862286A20F0A4
:100D7000040002E0286A40F001002862E06841F2C5
:100D8000883B98B1FFF704FD82460BE0286A40F0EB
:100D900004002862EEE700BFFFF7FAFCA0EB0A01AF
:100DA00059455AD8286A8007F6D50CE0FFF7F0FCC1
:100DB000824605E0FFF7ECFCA0EB0A0159454CD850
:100DC000286A8007F6D41FB1E86920F08050E861F6
:100DD000E06988B36968C1F38101022945D002281E
:100DE000C6F8608004D0FFF7D3FC044638E034E056
:100DF000FFF7CEFC074604E0FFF7CAFCC01B022841
:100E00002BD828688001F7D4206AB0F5803F05D13F
:100E10006868A16820F4003008436860D4E90801DC
:100E20000843696821F4741108436860C6F860904B
:100E3000FFF7AEFC044606E015E000BFFFF7A8FC94
:100E4000001B022809D828688001F7D50BE000BFF5
:100E5000FFF79EFC001B022802D90320BDE8F88F93
:100E600028688001F4D40020F8E70120F6E70000AC
:100E70000010024000004242800442421400002060
:100E8000007000407047704710B5040003D094F81C
:100E90003D0010B107E0012010BD002084F83C00A7
:100EA000204600F00CF8022084F83D00211D206847
:100EB00000F076FB012084F83D00002010BD704753
:100EC0000168CA6842F00102CA600068016841F026
:100ED0000101016000207047704770B5044600684A
:100EE00001694FF00005C943890715D4C168C9439A
:100EF000890711D4E91E01610120207720688069EB
:100F00008007204602D0FFF7E7FF04E000F098F8E2
:100F1000204600F096F8257720680169C943490703
:100F200017D4C168C943490713D46FF004010161A4
:100F3000022020772068806910F4407F204602D08C
:100F4000FFF7CAFF04E000F07BF8204600F079F8D4
:100F5000257720680169C943090716D4C168C943C8
:100F6000090712D46FF0080101610420207720687E
:100F7000C0698007204602D0FFF7AEFF04E000F012
:100F80005FF8204600F05DF8257720680169C943C5
:100F9000C90617D4C168C943C90613D46FF010013C
:100FA0000161082020772068C06910F4407F204646
:100FB00002D0FFF791FF04E000F042F8204600F075
:100FC00040F8257720680169C943C90708D1C1687D
:100FD000C943C90704D1891E0161204600F032F8D7
:100FE00020680169C943090609D4C168C9430906D3
:100FF00005D46FF0800101612046FFF743FF2068B0
:101000000169C943490609D4C168C943490605D4E1
:101010006FF040010161204600F01EF82068016970
:10102000C94389060BD4C168C943890607D46FF048
:10103000200101612046BDE87040FFF724BF70BD6C
:101040007047704700680349884201D1FFF7A6BB8B
:1010500070470000003401407047704770B5026867
:1010600004461068D168536910F00F0F50D003F098
:10107000010501F4907635435DD0C20705D0CA055D
:1010800003D5E26B42F00102E263420705D5DA07BD
:1010900003D0E26B42F00202E263820705D5DA0771
:1010A00003D0E26B42F00402E263020705D5DA07DF
:1010B00003D0E26B42F00802E263E26B002A33D015
:1010C000800604D5880602D5204600F0C5FA2068BF
:1010D0004069E16BC0F38010090700D428B32046B3
:1010E00000F0ACFA2068416949061AD5416921F03F
:1010F00040014161606BA0B11B494163606BFFF728
:1011000029F9002810D0606B416BBDE8704008479A
:10111000830610D58B060ED52046BDE8704000F042
:101120009BBA2046FFF799FF70BD2046FFF795FF59
:101130000020E06370BD030606D50B0604D52046EB
:10114000BDE8704000F08CBB4006F3D54806F1D5F1
:10115000D168204621F04001D160202184F8391067
:1011600000F00FF970BD00002D16000870B50400E6
:1011700004D094F83900002510B106E0012070BDBC
:1011800084F83850204600F023F8242084F83900F1
:101190002068C16821F40051C160204600F0A8FA1F
:1011A0002068016921F4904101612068416921F0C2
:1011B0002A0141612068C16841F40051C160E563C2
:1011C000202084F8390084F83A00002070BD000027
:1011D00030B585B000240094019402940394006813
:1011E000184988422CD11848816941F480418161B5
:1011F000816901F480410491816941F004018161B8
:101200008069124D00F0040004904FF400700090CB
:10121000022001900320039069462846FFF7BAF99F
:101220002815CDE90004694628460294FFF7B2F973
:10123000002205212520FFF735FB2520FFF726FB9F
:1012400005B030BD003801400010024000080140E8
:1012500090F83A30202B22D1F9B1F2B190F8383021
:10126000012B1CD081628285C2850021C1632222AC
:1012700080F83A2080F838100168CA6842F4807219
:10128000CA6001684A6942F001024A610068C168A7
:1012900041F02001C160002070470120704702200A
:1012A00070470000074910B5FF23012201F16400D7
:1012B00000F00AF80349BDE81040012201F1640082
:1012C000FFF7C6BF7C0000202DE9F843044690F8E4
:1012D00039001F4616460D46202850D1A5B19EB1B3
:1012E00094F8380001284AD0012084F838004FF0E3
:1012F0000008C4F83C80212084F83900FFF748FA40
:10130000A6848146E68426E00120BDE8F883E08CCF
:10131000401EE084A0684B46B0F5805F4FF00002AD
:101320004FF080012046009703D000F0CAFAE8B9D8
:101330000DE000F0C6FAC8B928882168C0F308009B
:101340004860206908B16D1C05E0AD1C03E0216810
:1013500015F8010B4860E08C0028D8D14B460022DC
:1013600040212046009700F0ACFA08B10320CCE7FA
:10137000202084F8390084F838800020C5E7022056
:10138000C3E77047FEE7000010B58AB014220B498E
:101390006846FEF735FF0021684600F041FB084C27
:1013A000064914222060143105A8FEF729FF002108
:1013B00005A800F035FB60600AB010BD6C23000882
:1013C000000000202DE9F04385B00024244800945B
:1013D000019402940394816941F040018161816923
:1013E00001F040010491816941F01001816181693E
:1013F00001F010010491816941F00401816181696A
:1014000001F004010491816941F008018161806962
:10141000DFF8508000F008000490002220214046B0
:10142000FFF7B0F9DFF84090002220214846FFF78F
:10143000A9F920250227012603970095CDE901642B
:1014400069464046FFF7A6F803970095CDE9016489
:1014500069464846FFF79EF805B0BDE8F0830000F6
:101460000010024000180140000C01400C4810B56B
:101470000A4901604FF4E1314160002181600C2292
:10148000C160C0E904128161C161FFF76FFE0028ED
:1014900003D0BDE81040FEF7EBBE10BD00380140A0
:1014A000E0000020FEE770470907090E002806DA71
:1014B00000F00F0000F1E02080F8141D704700F1EB
:1014C000E02080F800147047FFF720BA7047000052
:1014D00010B5502080F31188BFF34F8FBFF36F8F8B
:1014E00000F07EFE18B104494FF0805008600020E3
:1014F00080F3118810BD000004ED00E030B58FB01E
:1015000028216846FEF795FE14210AA8FEF791FEF1
:1015100001210804CDE90010002402940225049161
:10152000CDE907504FF4E01009906846FFF728FB1B
:101530000F20CDE90A056802CDE90C4002210AA876
:101540000E94FFF7F1F90FB030BD00000D480168AF
:1015500041F00101016041680B4A1140416001689E
:101560000A4A11400160016821F48021016041684C
:1015700021F4FE0141604FF41F0181600449C00362
:1015800008607047001002400000FFF8FFFFF6FE01
:1015900008ED00E00148FFF7A0BC0000200100209A
:1015A000F0B502681C4B1D4D1D4E1E4F1E4C4FF0DA
:1015B000804C984209D0A04207D0604505D0A8428F
:1015C00003D0B04201D0B84204D122F0700E4A6874
:1015D00042EA0E02984209D0A04207D0604505D0E9
:1015E000A84203D0B04201D0B84203D122F44075E2
:1015F000CA682A4322F080054A692A4302608A6841
:10160000C2620A688262984201D0A04201D109698F
:10161000016301214161F0BD002C01400004004044
:1016200000080040000C00400034014010B5406A42
:101630000021C185C184FFF710FD10BD0168CA6893
:1016400022F49072CA6001684A6922F001024A617C
:10165000202180F83A10704710B590F83A102229EE
:1016600001D0022010BD8168B1F5805F11D0016901
:10167000002901681FD0496801F07F03816A4A1C74
:1016800082620B70C18D491E0904090CC18518D0F6
:101690002BE00269816A002A0268526805D0D2B242
:1016A0000A80816A491C8162ECE7C2F308020A8061
:1016B000816A891CF7E74A68816A4B1C83620A7059
:1016C000E0E70168CA6822F02002CA600168CA68BF
:1016D00022F48072CA6001684A6922F001024A61FC
:1016E000202180F83A10FFF7DDFD002010BD00003A
:1016F0002DE9F041044600680169E26821F4405197
:10170000114301612169A0680843616908432168A8
:10171000CA6841F20C639A430243CA602068416977
:10172000A26921F44071114341614C49206864254C
:10173000322688423CD1FFF7DDF900EBC00101EB16
:10174000001061688900B0FBF1F7FFF7D3F900EBF7
:10175000C00101EB00106168B0468900B0FBF1F0F8
:10176000B0FBF5F06FF01801484307EB800106EB82
:101770000110B0FBF5F000F0F006FFF7BBF900EB4D
:10178000C00101EB001061688900B0FBF1F0B0FB13
:10179000F5F006EB0016FFF7ADF900EBC00101EB29
:1017A000001061688900B0FBF1F7FFF7A3F93BE097
:1017B000FFF790F900EBC00101EB001061688900B0
:1017C000B0FBF1F7FFF786F900EBC00101EB001069
:1017D0006168B0468900B0FBF1F0B0FBF5F06FF046
:1017E0001801484307EB800106EB0110B0FBF5F050
:1017F00000F0F006FFF76EF900EBC00101EB0010FE
:1018000061688900B0FBF1F0B0FBF5F006EB001663
:10181000FFF760F900EBC00101EB0010616889007F
:10182000B0FBF1F7FFF756F900EBC00101EB001038
:1018300061688900B0FBF1F0B0FBF5F06FF01801C2
:10184000484307EB800108EB0110B0FBF5F021687D
:1018500000F00F0030448860BDE8F081003801409E
:1018600090F83910212901D0022070478168B1F524
:10187000805F016A0BD04A1C0262026809785160DD
:10188000C18C491E0904090CC1840ED017E00988D7
:101890000268C1F30801516001690029016A02D0A0
:1018A000491C0162ECE7891CFBE70168CA6822F069
:1018B0008002CA600068C16841F04001C160002038
:1018C00070472DE9F041984617460E460446069D9E
:1018D0001DE0681C1BD02DB1FEF75AFFA0EB0800DD
:1018E000A84214D92068C16821F4D071C160206871
:1018F000416921F001014161202084F8390084F818
:101900003A00002084F838000320BDE8F081206808
:10191000006836EA000004D00020B842D9D0002088
:10192000F3E70120F9E700000148FFF797BB00004B
:10193000E0000020FEE70000014A024900F013B871
:10194000891900087800002002E008C8121F08C1A9
:10195000002AFAD170477047002001E001C1121F30
:10196000002AFBD170472DE9F04116460F46044688
:10197000002503E03946B047641C6D1C2078002820
:10198000F8D12846BDE8F08113B54FF6FF73012268
:1019900069460248FFF798FC00981CBDE000002053
:1019A000FEF704FFFFF7AAFDFFF70CFDFFF75EFD52
:1019B000052100220846FEF775FF0520FEF766FFA9
:1019C000002205210420FEF76DFF0420FEF75EFFD4
:1019D000002205210120FEF765FF0120FEF756FFDA
:1019E000012204490448FFF733FCFFF7CDFC00F067
:1019F00012F8FEE77C000020E000002001460020F5
:101A0000842900D0C81C704710B500B9012000F02F
:101A1000F1FA002010BD10B500F012FB002010BD3F
:101A20003EB504460D46B0F90800FFF7E7FF02A9EE
:101A3000CDE90001208A2B4682B2D4E9001000F0E3
:101A4000A3FB012801D000203EBD02983EBD00004E
:101A50002DE9F041184C0F460546E6682068001D48
:101A600000F012FA38B9206890F82C100120884054
:101A7000216981432161681C07D137B12168BDE824
:101A8000F0410E48091D00F037BA20683544B542D0
:101A90004560216805D2A06BBDE8F041091D00F04A
:101AA00013BA606B091D00F00FFAA06A854200D2DC
:101AB000A562BDE8F0810000180000205C02002053
:101AC0002DE9F041054600F023FA2E4CA068401C99
:101AD000A06020682C4F10B1606940B32DE02560F4
:101AE000A068012829D1002606EB860007EB8000BC
:101AF00000F0DCF9761C072EF6D323488C3000F07A
:101B0000D5F92148A03000F0D1F91F48B43000F0D9
:101B1000CDF91D48C83000F0C9F91B48DC3000F091
:101B2000C5F919488C3060631430A06305E0206863
:101B3000E96AC06A884200D82560606A401C606219
:101B4000E96A0120226988401043206101EB81008D
:101B500007EB8000291D00F0CFF900F0F9F960696A
:101B600000280CD02068E96AC06A884207D2074979
:101B70004FF080500860BFF34F8FBFF36F8FBDE809
:101B8000F0810000180000208001002004ED00E03A
:101B900070B5114E114C17E000F086FA3068B8B1FC
:101BA00000F082FB00F0B4F9F068C568281D00F071
:101BB0006BF9A068401EA0606068401E606000F085
:101BC000C7F9284600F00CF860680028E4D170BD21
:101BD00000F06AFBF8E7000048020020180000202F
:101BE00010B50446006B00F0C7F92046BDE8104070
:101BF00000F0C2B910484FF44061420706D0C01D42
:101C00000D4920F00700411AC1F540610B4A00233D
:101C10000144C2E900030839103A21F007011160BC
:101C20004B600B600B1AC0E9001393604FF000404B
:101C30005360D060704700007002002064000020F4
:101C4000074C4FF08056074DFFF7A2FF2068012890
:101C5000FAD92E60BFF34F8FBFF36F8FF4E7000008
:101C60008001002004ED00E02DE9F0479A46DDE90F
:101C7000098481466FF00303206B03EB820210445A
:101C8000089D20F00706700707D0502080F31188C8
:101C9000BFF34F8FBFF36F8FFEE723180A5C83F803
:101CA00034200A5C12B1401C1028F6D3002784F8B7
:101CB0004370072D00D30625E562C4E91157201DA6
:101CC00000F0FFF804F1180000F0FBF82461C5F102
:101CD00007006462A061E76484F850705246494688
:101CE000304600F0BFF82060B8F1000F01D0C8F80E
:101CF0000040BDE8F087000030B5114900E0114612
:101D00000A688242FBD34B685C18844203D1406866
:101D100018444860084643681C18944209D1084C8E
:101D2000103C2468A24209D052681A4442600A68F2
:101D300012680260814200D0086030BD0460F9E79B
:101D4000640000200648416B096829B1416BC968ED
:101D5000C9684968816270474FF0FF31FAE70000B7
:101D60001800002008484068401C4FF0500080F3E5
:101D7000118804D0BFF34F8FBFF36F8FFEE7BFF31F
:101D80004F8FBFF36F8FFEE76C0000202DE9F0410D
:101D90000546002700F088F9314E306808B9FFF792
:101DA00029FFF06805424BD1C5B3083568070ED04E
:101DB00005F00700C0F108000544680707D050206F
:101DC00080F31188BFF34F8FBFF36F8FFEE72DB302
:101DD0007068854234D82248103001460C6801E012
:101DE00020460C466168A94202D221680029F7D139
:101DF00031688C4224D00768216801606068083728
:101E0000411B10290FD96019420708D0502080F3D8
:101E10001188BFF34F8FBFF36F8FFEE710E0416073
:101E20006560FFF769FF61687068401A7060B268AA
:101E3000904200D2B060F06801430020C4E9000184
:101E400000F032FA780707D0502080F31188BFF3F2
:101E50004F8FBFF36F8FFEE73846BDE8F08100007B
:101E60005400002010B5031F4FF080741C601B1F2E
:101E700021F001011960191F024B0B601439403821
:101E80000A6010BD651D0008D0E9013201699A6041
:101E9000D0E901235A604A68824201D182684A60CF
:101EA000002202610868401E0860704700F10801C6
:101EB0004FF0FF32C0E90112C160016100210160F1
:101EC000704700210161704730B50B685A1C02D081
:101ED00000F1080202E0026904E022465468256825
:101EE0009D42FAD953684B6099608A6051600861DD
:101EF0000168491C016030BD42684A6093688B608C
:101F000093685960916008610168491C01607047DD
:101F1000502080F31188BFF34F8FBFF36F8F0A49B2
:101F20004868401C486001280CD10848006810F03F
:101F3000FF0F07D0502080F31188BFF34F8FBFF3FE
:101F40006F8FFEE7704700006C00002004ED00E09A
:101F50000849486828B1401E486001D180F31188C3
:101F60007047502080F31188BFF34F8FBFF36F8FFE
:101F7000FEE700006C00002070B5002827D0144D4B
:101F8000A0F108046168E868014207D1502080F39D
:101F90001188BFF34F8FBFF36F8FFEE722683AB10E
:101FA000502080F31188BFF34F8FBFF36F8FFEE790
:101FB0008143616000F078F860686968084468608F
:101FC0002046FFF799FEBDE8704000F06DB970BD86
:101FD0005400002006484FF47A710068B0FBF1F11C
:101FE0004FF0E020491E4161072101617047000068
:101FF0001400002010B5020014D00F48006B38B157
:10200000502080F31188BFF34F8FBFF36F8FFEE72F
:1020100000F04AF800211046FFF71AFD00F044F9DD
:10202000002807D105494FF080500860BFF34F8F5B
:10203000BFF36F8F10BD00001800002004ED00E01A
:102040001CB515480024CDE900402346802213A189
:10205000144800F099F8012809D0401C1AD15020EA
:1020600080F31188BFF34F8FBFF36F8FFEE75020CF
:1020700080F31188BFF34F8FBFF36F8F06484FF087
:10208000FF312C38816201214161C460BDE81C40F0
:1020900000F040B81CBD00004400002049444C45FD
:1020A00000000000411C00080248016B491C01634C
:1020B00070470000180000201448016B11B1012185
:1020C000C16170470021C1610169B1FA81F1C1F1BB
:1020D0001F0101EB81020E4951F822306BB101EB77
:1020E000820101F108034A6852684A609A4201D1AC
:1020F00052684A60D16801607047502080F31188AF
:10210000BFF34F8FBFF36F8FFEE700001800002072
:10211000800100201CB5194908780190FF20087043
:1021200008788DF800009DF80000154A00F0500076
:1021300010700720906005E09DF800305B008DF87E
:102140000030401E9DF800301B06F5D4000200F45C
:10215000E0609060019808700A48016841F47001DD
:102160000160016841F070410160FFF733FF00201A
:102170005060FDF7F9FF00201CBD000000E400E006
:102180006C00002020ED00E02DE9FF5F8346DDE9D3
:102190000E87994616468A469000FFF7F7FD050020
:1021A0001AD05420FFF7F2FD040012D0256300215D
:1021B000CDE90241CDE900874B46324651465846AB
:1021C000FFF752FD2046FFF77BFC012004B0BDE87D
:1021D000F09F2846FFF7D0FE4FF0FF30F6E70000F3
:1021E0002DE9F0412E4C0027206B40B1A069401C26
:1021F000A061E06900B101273846BDE8F081E668DA
:10220000761CE66013D1606B006838B1502080F313
:102210001188BFF34F8FBFF36F8FFEE7606BA16B29
:102220006163A063206A401C2062FFF78BFDA06AF7
:10223000DFF87080864209D3606B006880B1606B04
:10224000C068C568686886420DD2A0622068C06A0E
:1022500000EB800158F821000128CAD90127C8E7FE
:102260004FF0FF30F1E7281DFFF70EFEA86A18B106
:1022700005F11800FFF708FEE86A01212269814094
:102280001143216100EB800108EB8100291DFFF75C
:1022900033FEE86A2168C96A8842CDD30127CBE7BB
:1022A00018000020800100202DE9F0472C4D00246B
:1022B0002746286B38B1FFF72BFE286B401E28639A
:1022C000286B40B146E0502080F31188BFF34F8F58
:1022D000BFF36F8FFEE7A968224E0120D1B3A6F1AC
:1022E000B40980463068E8B1F068C46804F11800A9
:1022F000FFF7CAFD201DFFF7C7FDE06A2A6908FA4B
:1023000000F11143296100EB800109EB8100211DDF
:10231000FFF7F2FDE06A2968C96A8842E2D3C5F88E
:102320001C80DFE70CB1FFF70DFDAC6944B14646F8
:10233000FFF756FF00B1EE61641EF9D10020A861DD
:10234000E86938B10849012738070860BFF34F8FA3
:10235000BFF36F8FFFF7FCFD3846BDE8F087000044
:10236000180000203402002004ED00E0AC23000837
:1023700015030008000000000000000080000000BD
:10238000B82300083D030008FDFF00000000000026
:1023900080000000000000000000000001020304B3
:1023A0000607080900000000010203045461736B72
:1023B0005F4C4544300000005461736B5F4C4544F2
:1023C00031000000E4230008000000207C00000031
:1023D00048190008602400087C000020F411000067
:1023E0005819000800000000000000000100000073
:1023F000100000000000000000A24A0400000000DD
:1024000000000000000000000000000000000000CC
:1024100000000000000000000000000000000000BC
:1024200000000000000000000000000000000000AC
:10243000000000000000000000000000000000009C
:10244000000000000000000000000000000000008C
:1024500000000000AAAAAAAA0000000000000000D4
:0400000508000131BD
:00000001FF
