:020000040800F2
:100000007004002045010008330C0008030C0008B0
:10001000310C0008B1010008910D0008000000003B
:100020000000000000000000000000005D0C00085F
:10003000B301000800000000590C00085F0C000824
:100040005F010008550C00085F0100085F0100080F
:10005000B50100085B0C00085F0100085F010008A3
:100060005F0100085F0100085F0100085F010008F0
:100070005F0100085F0100085F0100085F010008E0
:100080005F0100085F0100085F0100085F010008D0
:100090005F0100085F0100085F0100085F010008C0
:1000A0005F0100085F0100085F0100085F010008B0
:1000B0005F0100085F0100085F0100085F010008A0
:1000C0005F0100085F0100085F0100085F01000890
:1000D0005F0100085F0100085F0100085F01000880
:1000E0005F0100085F0100085F0100085F01000870
:1000F000F90C00085F0100085F0100085F010008BB
:100100005F0100085F0100085F0100085F0100084F
:100110005F0100085F0100085F0100085F0100083F
:100120005F0100085F0100085F0100085F0100082F
:10013000DFF80CD000F02AF800480047B10D0008A5
:10014000700400200648804706480047FEE7FEE7A7
:10015000FEE7FEE7FEE7FEE7FEE7FEE7FEE7FEE777
:10016000B10C000831010008D2B201E000F8012B07
:10017000491EFBD270470022F6E710B513460A4627
:1001800004461946FFF7F0FF204610BD064C074D08
:1001900006E0E06840F0010394E807009847103457
:1001A000AC42F6D3FFF7C8FF080E0008280E00087F
:1001B000FEE7704700F050B8064A0021D1610649B9
:1001C0000A6942F002020A614861086940F0400091
:1001D000086170475000002000200240044B0022BC
:1001E000DA61044A136943F0010313610180704727
:1001F000500000200020024014480022C168CB06B5
:10020000134904D5CA6942F00202CA611022C368C8
:100210005B0705D5CB6943F00103CB6142F00402D3
:10022000C369DB0707D0CB6943F00403CB61C16925
:1002300021F00101C161A2F58071013901D0C260D4
:100240007047C16921F00101C1617047002002407F
:1002500050000020704700002DE9F0413E4DE86855
:100260003E4CC0064FF0FF374FF0000602D4E8685E
:10027000400708D5D4F80880A760FFF7BDFF4046C7
:1002800000F06EF82670E868800653D52020E860FC
:100290002078F8B1207801281DD02078022833D0AA
:1002A0006068401E60606068B0B3A068801CA06099
:1002B000A06821696269090C41EA0241120C2161BE
:1002C0006261296921F0010129612169626989B2AC
:1002D000FFF784FF2EE06068401E6060606868B1D0
:1002E000A068FFF7B7FFA06800F50060A06029696B
:1002F00021F002012961FFF75FFF1BE03846A7608C
:100300002670FFF7A7FF15E0286920F00400286198
:100310000020FFF79FFF0CE0FFE72078032817D0AD
:1003200020780428A06815D0B0F10600FFF792FFEE
:10033000A76026702078002808D1286920F00700DF
:100340002861286920F4A05028612676BDE8F08154
:10035000A068EBE7801EE9E7002002405000002083
:1003600070470000014880687047000000000020CE
:1003700002488168027811448160704700000020C3
:10038000074810B5016841F010010160032000F03A
:100390008DF8002000F006F800F03EF8002010BDB7
:1003A0000020024000B5014687B000222C2000F05A
:1003B0005DF82C2000F04EF81348816941F400519B
:1003C0008161806905A900F400500690684600F03C
:1003D00045F900F063F90D490D4AB0FBF1F10D4804
:1003E000491E0260416040F2E7320021C0E903216A
:1003F000816000F01DFB10B1012007B000BD054871
:1004000000F032FBF9E700000010024040420F000C
:1004100000340140100000200C4808B5816941F00B
:1004200001018161816901F001010091C16941F01F
:100430008051C161C06900F080500090044841685B
:1004400021F0E06141F00071416008BD0010024000
:100450000000014000F01F0201219140400980008E
:1004600000F1E020C0F8001170470000F0B40E4B1E
:100470001B680C46C3F30223C3F10705042D00D902
:100480000425191D072901D2002300E0DB1E0126E7
:1004900006FA05F1491E214099409E40761E1640FD
:1004A0003143F0BC00F0C6BB0CED00E0064900F0A3
:1004B000070208684FF6FF03184040EA0220034A8B
:1004C00010430860704700000CED00E00000FA05E2
:1004D0007047000010B5054C2068C00304D5FFF735
:1004E000F7FF4FF48030206010BD0000140401407D
:1004F0002DE9F047DFF8548105460E46D8F8000094
:1005000000F00700B0420CD2D8F8001021F007012B
:100510003143C8F80010D8F8000000F00700B042DE
:100520006FD128684A4C810712D5400703D560680F
:1005300040F4E06060602878000703D5606840F40C
:10054000605060606068A96820F0F0000843606057
:100550002878C00744D06868012816D0216802288E
:1005600016D0890700294CDA616821F003010143A4
:100570006160FFF7F7FE6968074641F2883001299C
:100580000ED00229814618D026E021688903E9E7C8
:100590008901E7E7FFF7E6FEC11B494501D918E0ED
:1005A00081466068C0F381000128F3D118E000BFE4
:1005B000FFF7D8FEC11B49450BD86068C0F3810026
:1005C0000228F5D10CE000BFFFF7CCFEC11B494566
:1005D00002D90320BDE8F087606810F00C0FF3D15A
:1005E000D8F80010404601F00701B1420BD901686C
:1005F00021F0070131430160006800F00700B042BC
:1006000001D00120E6E72878400705D56068E96851
:1006100020F4E060084360602878000706D5606831
:10062000296920F4605040EAC100606000F046F89B
:100630006168084AC1F30311515CC840064908606B
:100640000020FFF7AFFE0020C4E7000000200240BA
:1006500000100240EE0D00080C0000200F22026086
:100660000C4A536803F003034360536803F0F0033C
:100670008360536803F4E063C36052684FF4E0633F
:1006800003EAD20202610448006800F00700086033
:100690007047000000100240002002400448054955
:1006A00000684968044AC1F3C221515CC8407047E0
:1006B0000C00002000100240FE0D000812A185B0C1
:1006C0000FC98DE80F0014A0144A00680490516807
:1006D000134801F00C03042B10D0082B0ED1C1F3EA
:1006E0008343C9031DF803000AD5516804AAC1F366
:1006F0004041515C0A4A5043B0FBF1F005B07047ED
:1007000008494843FAE70000020304050607080900
:100710000A0B0C0D0E0F1010010200000010024019
:1007200000127A0000093D002DE9F84F04460078D8
:10073000B94DC00748D06868C0F38100012807D0D0
:100740006868C0F38100022809D16868C00306D533
:100750002868800338D5606800286FD034E060686E
:10076000B0F5803F0BD010B1B0F5A02F11D02868A4
:1007700020F480302860286820F4802002E0286877
:1007800040F480302860606888B1FFF7EBFD0646D2
:1007900009E0286840F480202860F0E7FFF7E2FDD8
:1007A000801B642875D828688003F7D50CE0FFF714
:1007B000D9FD064605E000BFFFF7D4FD801B642885
:1007C000F0D828688003F7D42078944E80074FF043
:1007D00001094FF000083BD5686810F00C0F07D0F6
:1007E0006868C0F38100022809D16868C00306D494
:1007F0002868800714D5206901281FD110E02069DE
:10080000B0B1C6F80090FFF7ADFD074605E000BFA8
:10081000FFF7A8FDC01B0228C4D828688007F7D5B9
:100820002868616920F0F80040EAC10028600FE004
:10083000C6F80080FFF796FD074606E0E9E000BF36
:10084000FFF790FDC01B022823D828688007F7D443
:10085000207800072CD57248A169D9B1C0F8009062
:10086000FFF780FD074604E0FFF77CFDC01B022870
:100870000FD8686A8007F7D56A484FF4FA510068C4
:10088000B0FBF1F0009000BF0098411E0091FAD239
:100890000EE080E0C0F80080FFF764FD074604E04A
:1008A000FFF760FDC01B022875D8686A8007F7D47F
:1008B0002078400760D5E8690027C00008D4E869BF
:1008C00040F08050E861E869012700F08050009016
:1008D00055480168C90513D40168834641F4807105
:1008E0000160FFF73FFD824606E000BFFFF73AFDDB
:1008F000A0EB0A0064284ED8DBF80000C005F5D54F
:10090000E06801280AD008B1052813D0286A20F031
:1009100001002862286A20F0040002E0286A40F002
:1009200001002862E06841F2883B98B1FFF71AFDA8
:1009300082460BE0286A40F004002862EEE700BF20
:10094000FFF710FDA0EB0A0159455AD8286A800725
:10095000F6D50CE0FFF706FD824605E0FFF702FD45
:10096000A0EB0A0159454CD8286A8007F6D41FB17C
:10097000E86920F08050E861E06988B36968C1F3F4
:100980008101022945D00228C6F8608004D0FFF713
:10099000E9FC044638E034E0FFF7E4FC074604E0F5
:1009A000FFF7E0FCC01B02282BD828688001F7D491
:1009B000206AB0F5803F05D16868A16820F4003056
:1009C00008436860D4E908010843696821F4741198
:1009D00008436860C6F86090FFF7C4FC044606E070
:1009E00015E000BFFFF7BEFC001B022809D82868ED
:1009F0008001F7D50BE000BFFFF7B4FC001B022815
:100A000002D90320BDE8F88F28688001F4D40020C3
:100A1000F8E70120F6E70000001002400000424223
:100A2000800442420C000020007000407047704774
:100A300010B5040003D094F83D0010B107E0012088
:100A400010BD002084F83C00204600F00CF8022085
:100A500084F83D00211D206800F054F9012084F83D
:100A60003D00002010BD70470168CA6842F00102D5
:100A7000CA600068016841F0010101600020704710
:100A8000704770B50446006801694FF00005C9431E
:100A9000890715D4C168C943890711D4E91E0161CA
:100AA00001202077206880698007204602D0FFF768
:100AB000E7FF04E000F098F8204600F096F825776C
:100AC00020680169C943490717D4C168C943490768
:100AD00013D46FF00401016102202077206880693F
:100AE00010F4407F204602D0FFF7CAFF04E000F078
:100AF0007BF8204600F079F8257720680169C94322
:100B0000090716D4C168C943090712D46FF0080158
:100B10000161042020772068C0698007204602D048
:100B2000FFF7AEFF04E000F05FF8204600F05DF84C
:100B3000257720680169C943C90617D4C168C9432C
:100B4000C90613D46FF010010161082020772068D6
:100B5000C06910F4407F204602D0FFF791FF04E007
:100B600000F042F8204600F040F82577206801693F
:100B7000C943C90708D1C168C943C90704D1891E3F
:100B80000161204600F032F820680169C943090676
:100B900009D4C168C943090605D46FF08001016119
:100BA0002046FFF743FF20680169C943490609D47D
:100BB000C168C943490605D46FF040010161204670
:100BC00000F01EF820680169C94389060BD4C1688A
:100BD000C943890607D46FF0200101612046BDE8B2
:100BE0007040FFF724BF70BD70477047006803492D
:100BF000884201D1FFF7BCBB7047000000340140C0
:100C00007047FEE7094808B5816941F0100181612C
:100C1000816901F010010091816941F00401816155
:100C2000806900F00400009008BD00000010024040
:100C3000FEE770470907090E002806DA00F00F00EA
:100C400000F1E02080F8141D704700F1E02080F8EA
:100C500000147047FFF73EBC7047704770477047FD
:100C600030B58FB028216846FFF785FA14210AA80D
:100C7000FFF781FA01210804CDE900100024029455
:100C800002250491CDE907504FF4E0100990684621
:100C9000FFF74AFD0F20CDE90A056802CDE90C40B7
:100CA00002210AA80E94FFF723FC0FB030BD00000C
:100CB0000D48016841F00101016041680B4A114093
:100CC000416001680A4A11400160016821F48021F5
:100CD0000160416821F4FE0141604FF41F01816011
:100CE0000449C00308607047001002400000FFF88C
:100CF000FFFFF6FE08ED00E00148FFF7C2BE00006E
:100D000010000020F0B502681C4B1D4D1D4E1E4FFB
:100D10001E4C4FF0804C984209D0A04207D060454D
:100D200005D0A84203D0B04201D0B84204D122F08D
:100D3000700E4A6842EA0E02984209D0A04207D0DB
:100D4000604505D0A84203D0B04201D0B84203D1DB
:100D500022F44075CA682A4322F080054A692A4372
:100D600002608A68C2620A688262984201D0A04228
:100D700001D10969016301214161F0BD002C0140ED
:100D80000004004000080040000C00400034014016
:100D9000FEE702E008C8121F08C1002AFAD1704716
:100DA0007047002001E001C1121F002AFBD17047EB
:100DB000FFF7E6FAFFF754FFFFF724FF0022114682
:100DC0000520FFF753FB0520FFF744FB00221146E7
:100DD0000420FFF74BFB0420FFF73CFB00221146E9
:100DE0000120FFF743FB0120FFF734FBFEE7000083
:100DF00000000000000001020304060708090000CB
:100E00000000010203040000280E0008000000207A
:100E100010000000920D0008380E0008100000209D
:100E200060040000A20D0008010000001000000096
:080E30000000000000A24A04CA
:0400000508000131BD
:00000001FF
